:0400000080315628CD
:100008007E1480312100101C0A280B281428200097
:10001800101C0F28102814288431242480315428D7
:100028000B1F1728182854282100111E1C281D28CA
:1000380028282000111E2128222828285C088A0048
:100048005B080A00803154282100911E2C282D2895
:1000580038282000911E3128322838285A088A006A
:1000680059080A00803154282100911C3C283D2859
:1000780046282000911C41284228462883318B239A
:10008800803154282100111C4A284B28542820006C
:10009800111C4F285028542883315223803154286A
:1000A8007E10090080315828703084002330850084
:1000B8008030FE000030FF008331C2238031F00120
:1000C800F101F201F301F401F50120308400003060
:1000D80085003330FE000030FF008331C2238031B9
:1000E8007E102000803178288331082380318B17D7
:1000F8000B1783319A23803102302000DD00013054
:10010800DE008131EF21803104302000DD00013034
:10011800DE008131EF21803101302000DD00003028
:10012800DE008131EF21803184313424803169301F
:100138002000DD000330DE008431122480312100EC
:10014800101404302000DD000430DE0084311E2449
:100158008031843131248031E6302000DD000330E5
:10016800DE0084310C24803122008D1720295203AF
:10017800031DBF28C028202922008D132000D2018A
:100188000130D00020290230DD000130DE0082314C
:100198002322803184313724803101302000BC078C
:1001A8000030BD3DBE3DBF3D0130B8070030B93D10
:1001B800BA3DBB3D3B08031DED283A08031DED2859
:1001C8003908031DED2805303802031CEC28ED28FA
:1001D800F92800302000BB000030BA000030B90018
:1001E8000030B8000230D000202904302000DD00A3
:1001F8000130DE008131EF21803184312E248031BD
:1002080005302000D000202922008D1784313124A8
:10021800803103302000D00020295203031D152906
:100228001629202922008D13C2285103031D1D29D8
:100238001E292029D101C42820005008003A03199A
:10024800BB28013A0319C728033A03190829013AB8
:1002580003191129063A031919292029803156282A
:100268007235203E860087010030C03FC13F230021
:100278009D1C3F29402951297235203E860087015F
:10028800011520004008410403194B294C29512924
:1002980041088A0040080A00813123001D1D5529A4
:1002A800562967297235203E86008701811420006F
:1002B80042084304031961296229672943088A000F
:1002C80042080A00813123001908F6007208013E2D
:1002D8000739F70077087106031D732974297529F2
:1002E8007F297208303E86008701760881007708EA
:1002F800F2000130F0070800203022008C008D0148
:100308008E011F3021008C0070308D007F308E00F0
:1003180023008C018D018E0124008C018D018E013A
:1003280025008C018D018E01373026008C00F030BD
:100338008D00FF308E003F3027008C00F0308D009C
:10034800FF308E0010303C0090000430A4001430C0
:100358003D009500270091019201930194019501B8
:1003680096019701980199010800210091123430F3
:100378002000D9000130DA0021001112ED302000F0
:10038800DB000230DC00483023009F0090309D00E5
:1003980026309E0040309B0003309C003D302000FA
:1003A800DD000430DE008331DA2381312A30200079
:1003B800DD000430DE008331CE2381312000C80106
:1003C800C901F501F4018030F300F201F101F001F7
:1003D80021009116080020005E08DF005D08E0009B
:1003E8000E2A600932009105222A6009320092051E
:1003F800F829600932009305F8296009320094054C
:10040800F829600932009505F82960093200960537
:10041800F829222A5F08003A0319F529013A031935
:10042800F929033A0319FD29013A0319012A073A60
:100438000319052A013A0319092A0D2A0800200080
:100448005E08DF005D08E000422A6008320091047F
:10045800562A6008320092042C2A6008320093045D
:100468002C2A6008320094042C2A60083200950473
:100478002C2A6008320096042C2A562A5F08003A73
:100488000319292A013A03192D2A033A0319312A93
:10049800013A0319352A073A0319392A013A031987
:1004A8003D2A412A08007708F8007608F900752ADD
:1004B800790832009104892A7908320092045F2A67
:1004C8007908320093045F2A7908320094045F2A7D
:1004D8007908320095045F2A7908320096045F2A69
:1004E800892A7808003A03195C2A013A0319602A14
:1004F800033A0319642A013A0319682A073A0319C7
:100508006C2A013A0319702A742A08007708F8003F
:100518007608F900A82A790932009105BC2A7909D8
:1005280032009205922A790932009305922A7909B4
:1005380032009405922A790932009505922A7909A0
:1005480032009605922ABC2A7808003A03198F2AA5
:10055800013A0319932A033A0319972A013A03190E
:100568009B2A073A03199F2A013A0319A32AA72AA3
:100578000800B93401340034003400340034003445
:1005880000340034003400340034003400340034C3
:1005980000340034003400340034003400340034B3
:1005A80000340034003400340034003400340034A3
:1005B8000034003400340034003400340034003493
:1005C8000034DA340334CE340334003400340034D5
:1005D8000034803073020318F22AF32A052B7408BA
:1005E800703E860087012330873D010823009A006A
:1005F8007408013E7F39F6007608F4000130F307ED
:10060800072B2100111208008331F1238331813136
:100618008021833183312123833183317C238331CA
:100628008131B92183318331FB238331843118240B
:1006380083318331A8238331080020001B109A01DD
:100648000A3099001A08CB001908CA009C013B30EF
:10065800D7000430D8000030D5000030D600111083
:1006680021001114453020009B00080020001B1DAC
:100678003E2B3F2B4D2B1B080139F8001B10770828
:100688009A0076089900780C031C1B1003181B1499
:10069800512B77089A0076089900080020004B082B
:1006A800F7004A08F60083313A23833120005708BF
:1006B80058040319602B612B662B58088A005708C9
:1006C8000A00833120001110080001302000CE07F5
:1006D8000030CF3D00304F020A3003194E02031C90
:1006E800762B772B7B2BCE01CF010130D20008006F
:1006F800EA3020009E009D013A30D3000430D40037
:100708009110210091147F3020009F0008002000E4
:10071800530854040319912B922B972B54088A00E1
:1007280053080A008331200091100800FF3032007E
:100738009100FF309200FF309300FF309400FF30AB
:100748009500FF3096000800200010100B143C3074
:10075800DD000430DE0084311E24833121001014B2
:10076800080020004C084D040319BB2BBC2BC12BDF
:100778004D088A004C080A00833108006400800193
:1007880001310130FE020030FF3B7F087E04031D6B
:10079800C32B003420005D085E040319D42BD52B2D
:1007A800D92B5E08C1005D08C000080020005D0864
:1007B8005E040319E02BE12BE52B5E08C3005D08FE
:1007C800C200080001302000D1000430F6000130DA
:1007D800F7008231572283310800603032009900D7
:1007E8009B019D0107309F009E019C01080032007B
:1007F800910104309200930194019501960108003B
:100808000230F6000130F70082318A228431080074
:1008180020005E08D4005D08D300080020005E08B0
:10082800D8005D08D7000800023023009700320086
:100838009801080020005E08CD005D08CC00080083
:10084800200010108331B5238431080023001D12C5
:100858001D16080020001F15080020001B140800A2
:1008680021001114080063000000080008000800B7
:04087800080008006C
:020000040001F9
:08000E008F3FF33FFF3FFF3F6E
:00000001FF
