:0400000080313628ED
:100008007E1480312100101C0A280B281428200097
:10001800101C0F28102814288131342180313428ED
:100028002100101E1828192822282000101E1D281B
:100038001E28222881314121803134280B1F252890
:10004800262834282100111C2A282B28342820008F
:10005800111C2F28302834288031C72080313428BB
:100068007E10090080313828F401F501F601F70106
:100078007E1020008031762822008C018D018E01AF
:100088003F3021008C0070308D007F308E0037307B
:1000980023008C0070308D007E308E0024008C018F
:1000A8008D018E0125008C018D018E0137302600CF
:1000B8008C00F0308D00FF308E003F3027008C0020
:1000C800F0308D00FF308E0010303C00900027008B
:1000D800910192019301940195019601970198016C
:1000E800990108008031EC2080318B170B17813182
:1000F8003D218031DC302000A2000030A300813196
:10010800282180312100101406302000A20001307F
:10011800A30081312E21803181313A218031932809
:100128008031362820001B109A010A3099001A08DD
:10013800F5001908F4009C014030F0000130F1008E
:100148000030A0000030A10011102100111445302A
:1001580020009B00080020001B1DB328B428C228DB
:100168001B080139FA001B1079089A0078089900D1
:100178007A0C031C1B1003181B14C62879089A0054
:100188007808990008007508F9007408F8008031AB
:10019800AF208031700871040319D328D428D928D6
:1001A80071088A0070080A008031200011100800C8
:1001B8000130F6070030F73D003077020A300319A6
:1001C8007602031CE828E928EB28F601F701080065
:1001D80081311F218031803140208031803196204B
:1001E80080318031F92080310800200010100B1474
:1001F8004230A2000130A30081312E21803121003C
:1002080010140800031022008D1F031403180D2971
:10021800102922008D17122922008D130800720858
:1002280073040319182919291E2973088A007208EA
:100238000A00813108006230320099009B019D015B
:1002480003309F009E01080020002308F1002208C7
:10025800F000080020002308F3002208F20008003C
:1002680020001010813113218131080020001B1457
:0E02780008002100111408000800080008000A
:020000040001F9
:08000E008F3FF33FFF3FFF3F6E
:00000001FF
