:0400000080314828DB
:100008007E1480312100101C0A280B281428200097
:10001800101C0F28102814288331332380314628D8
:100028000B1F1728182846282100111E1C281D28D8
:1000380028282000111E21282228282859088A004B
:1000480058080A00803146282100911E2C282D28A6
:1000580038282000911E31283228382857088A006D
:1000680056080A00803146282100111C3C283D28EA
:1000780046282000111C412842284628823188221F
:10008800803146287E10090080314A28703084006B
:10009800233085008030FE000030FF008231E222EC
:1000A8008031F001F101F201F301F401F501203092
:1000B8008400003085003230FE000030FF008231BD
:1000C800E22280317E10200080316A2882319F220E
:1000D80080318B170B17833140238031B5302000D6
:1000E800DA000230DB008331212380312100101433
:1000F80019302000DA000330DB0083312D238031F2
:1001080083313D23803122008D17D9285103031DE7
:100118008E288F28D92822008D132000D101013084
:10012800D000D9280230DA000130DB008131A52166
:10013800803183314323803101302000BC070030F7
:10014800BD3DBE3DBF3D0130B8070030B93DBA3DA9
:10015800BB3D3B08031DBC283A08031DBC283908D1
:10016800031DBC2805303802031CBB28BC28D9282D
:1001780000302000BB000030BA000030B900003069
:10018800B8000230D000D92822008D1783313D23D2
:10019800803103302000D000D9285103031DD52811
:1001A800D628D92822008D13912820005008003A1B
:1001B80003198A28013A03199628033A0319C8280B
:1001C800013A0319D128D928803148287235203EB0
:1001D800860087010030C03FC13F23009D1CF528E1
:1001E800F62807297235203E860087010115200070
:1001F80040084104031901290229072941088A00F6
:1002080040080A00813123001D1D0B290C291D29D6
:100218007235203E8600870181142000420843047D
:100228000319172918291D2943088A0042080A00BA
:10023800813123001908F6007208013E0739F700DA
:1002480077087106031D29292A292B2935297208BF
:10025800303E86008701760881007708F200013079
:10026800F0070800203022008C008D018E011F301D
:1002780021008C0070308D007F308E0023008C01AF
:100288008D018E0124008C018D018E0125008C01C9
:100298008D018E01373026008C00F0308D00FF3044
:1002A8008E003F3027008C00F0308D00FF308E002C
:1002B80010303C0090000430A40014303D0095003C
:1002C80027009101920193019401950196019701EC
:1002D80098019901080021009112EA302000D60007
:1002E8000030D700210011123C302000D800023025
:1002F800D900483023009F0090309D0026309E0092
:1003080040309B0003309C0048302000DA00033066
:10031800DB008231FA22813139302000DA000330E3
:10032800DB008231EE2281312000C801C901F501CC
:10033800F4018030F300F201F101F001210091167F
:10034800080020005B08DC005A08DD00C4295D08AD
:1003580032009104D8295D0832009204AE295D0864
:1003680032009304AE295D0832009404AE295D087A
:1003780032009504AE295D0832009604AE29D829CA
:100388005C08003A0319AB29013A0319AF29033A6B
:100398000319B329013A0319B729073A0319BB29E5
:1003A800013A0319BF29C32908007708F80076081D
:1003B800F900F7297909320091050B2A79093200E9
:1003C8009205E129790932009305E129790932007A
:1003D8009405E129790932009505E1297909320066
:1003E8009605E1290B2A7808003A0319DE29013A13
:1003F8000319E229033A0319E629013A0319EA29FC
:10040800073A0319EE29013A0319F229F6290800D7
:100418006F340134003400340034003400340034C4
:100428000034003400340034003400340034003424
:100438000034003400340034003400340034003414
:100448000034003400340034003400340034003404
:1004580000340034003400340034003400340034F4
:10046800FA340234EE3402340034003400340034F8
:10047800803073020318412A422A542A7408703EB5
:10048800860087012330873D010823009A007408FD
:10049800013E7F39F6007608F4000130F307562A4A
:1004A80021001112080020001B109A010A3099003F
:1004B8001A08CB001908CA009C014630D400033042
:1004C800D5000030D2000030D300111021001114E3
:1004D800453020009B00080020001B1D742A752A47
:1004E800832A1B080139F8001B1077089A00760840
:1004F8009900780C031C1B1003181B14872A770813
:100508009A0076089900080020004B08F7004A086E
:10051800F6008231702282312000540855040319F4
:10052800962A972A9C2A55088A0054080A0082317C
:1005380020001110080083310623823181313621D1
:10054800823182315722823181316F218231833168
:10055800102382318331272382318231C8228231AC
:10056800080001302000CE070030CF3D00304F0298
:100578000A3003194E02031CC22AC32AC72ACE0115
:10058800CF010130D1000800200010100B144730B3
:10059800DA000330DB0083312D238231210010146F
:1005A800080020004C084D040319DB2ADC2AE12A44
:1005B8004D088A004C080A00823108006400800156
:1005C80001310130FE020030FF3B7F087E04031D2D
:1005D800E32A003420005A085B040319F42AF52A98
:1005E800F92A5B08C1005A08C000080020005A0810
:1005F8005B040319002B012B052B5B08C3005A0869
:10060800C20008006030320099009B019D0107304C
:100618009F009E019C010800320091010430920065
:10062800930194019501960108000230F60001300B
:10063800F7008131D9218331080020005B08D500FB
:100648005A08D400080002302300970032009801AD
:10065800080020005B08CD005A08CC0008002000E4
:1006680010108231D5228331080023001D121D1677
:10067800080020001B140800210011140800630062
:0A0688000000080008000800080048
:020000040001F9
:08000E008F3FF33FFF3FFF3F6E
:00000001FF
